{
  "_format": "hh-sol-artifact-1",
  "contractName": "Misc",
  "sourceName": "contracts/Deposit.sol",
  "abi": [
    {
      "inputs": [
        {
          "internalType": "address",
          "name": "pool",
          "type": "address"
        },
        {
          "internalType": "address",
          "name": "token",
          "type": "address"
        },
        {
          "internalType": "address",
          "name": "user",
          "type": "address"
        },
        {
          "internalType": "uint256",
          "name": "amount",
          "type": "uint256"
        }
      ],
      "name": "deposit",
      "outputs": [],
      "stateMutability": "nonpayable",
      "type": "function"
    }
  ],
  "bytecode": "0x608060405234801561001057600080fd5b506101aa806100206000396000f3fe608060405234801561001057600080fd5b506004361061002b5760003560e01c80630284c3f514610030575b600080fd5b6100bc6004803603608081101561004657600080fd5b81019080803573ffffffffffffffffffffffffffffffffffffffff169060200190929190803573ffffffffffffffffffffffffffffffffffffffff169060200190929190803573ffffffffffffffffffffffffffffffffffffffff169060200190929190803590602001909291905050506100be565b005b8373ffffffffffffffffffffffffffffffffffffffff1663e8eda9df84838560006040518563ffffffff1660e01b8152600401808573ffffffffffffffffffffffffffffffffffffffff1681526020018481526020018373ffffffffffffffffffffffffffffffffffffffff168152602001828152602001945050505050600060405180830381600087803b15801561015657600080fd5b505af115801561016a573d6000803e3d6000fd5b505050505050505056fea26469706673582212209e5e44eeca107025b69a449610cc46ce830b6c371a9222719ec10f59bf93a32a64736f6c634300060c0033",
  "linkReferences": {},
  "deployedLinkReferences": {}
}